:020000040000fa
:080000000002040000000000f2
:020000040000fa
:04000800b003000041
:020000040000fa
:04000c00b00300003d
:020000040000fa
:04001000b003000039
:020000040000fa
:04001400b003000035
:020000040000fa
:04001800b003000031
:020000040000fa
:04001c00b00300002d
:020000040000fa
:04002000b003000029
:020000040000fa
:04002400b003000025
:020000040000fa
:04002800b003000021
:020000040000fa
:04002c00b00300001d
:020000040000fa
:04003000b003000019
:020000040000fa
:04003400b003000015
:020000040000fa
:04003800b003000011
:020000040000fa
:04003c00b00300000d
:020000040000fa
:04004000b003000009
:020000040000fa
:04004400b003000005
:020000040000fa
:04004800b003000001
:020000040000fa
:04004c00b0030000fd
:020000040000fa
:04005000b0030000f9
:020000040000fa
:040054005c03000049
:020000040000fa
:04005800b0030000f1
:020000040000fa
:04005c00b0030000ed
:020000040000fa
:04006000b0030000e9
:020000040000fa
:04006400b0030000e5
:020000040000fa
:040068002a03000067
:020000040000fa
:04006c00120300007b
:020000040000fa
:04007000b0030000d9
:020000040000fa
:04007400b0030000d5
:020000040000fa
:04007800b0030000d1
:020000040000fa
:04007c00b0030000cd
:020000040000fa
:04008000b0030000c9
:020000040000fa
:04008400b0030000c5
:020000040000fa
:04008800b0030000c1
:020000040000fa
:04008c00b0030000bd
:020000040000fa
:04009000b0030000b9
:020000040000fa
:04009400b0030000b5
:020000040000fa
:04009800b0030000b1
:020000040000fa
:04009c00b0030000ad
:020000040000fa
:0400a000b0030000a9
:020000040000fa
:0400a400b0030000a5
:020000040000fa
:0400a800b0030000a1
:020000040000fa
:0400ac00b00300009d
:020000040000fa
:0400b000b003000099
:020000040000fa
:0400b400b003000095
:020000040000fa
:0400b800b003000091
:020000040000fa
:0400bc00b00300008d
:020000040000fa
:0400c000b003000089
:020000040000fa
:0400c400b003000085
:020000040000fa
:0400c800b003000081
:020000040000fa
:0400cc00b00300007d
:020000040000fa
:0400d000b003000079
:020000040000fa
:0400d400b003000075
:020000040000fa
:0400d800b003000071
:020000040000fa
:0400dc00b00300006d
:020000040000fa
:0400e000b003000069
:020000040000fa
:0400e400b003000065
:020000040000fa
:0400e800b003000061
:020000040000fa
:0400ec00b00300005d
:020000040000fa
:0400f000b003000059
:020000040000fa
:0400f400b003000055
:020000040000fa
:0400f800b003000051
:020000040000fa
:0400fc00b00300004d
:020000040000fa
:04010000b003000048
:020000040000fa
:04010400b003000044
:020000040000fa
:04010800b003000040
:020000040000fa
:04010c00b00300003c
:020000040000fa
:04011000b003000038
:020000040000fa
:04011400b003000034
:020000040000fa
:04011800b003000030
:020000040000fa
:04011c00b00300002c
:020000040000fa
:04012000b003000028
:020000040000fa
:04012400b003000024
:020000040000fa
:04012800b003000020
:020000040000fa
:04012c00b00300001c
:020000040000fa
:04013000b003000018
:020000040000fa
:04013400b003000014
:020000040000fa
:04013800b003000010
:020000040000fa
:04013c00b00300000c
:020000040000fa
:04014000b003000008
:020000040000fa
:04014400b003000004
:020000040000fa
:04014800b003000000
:020000040000fa
:04014c00b0030000fc
:020000040000fa
:04015000b0030000f8
:020000040000fa
:04015400b0030000f4
:020000040000fa
:04015800b0030000f0
:020000040000fa
:04015c00b0030000ec
:020000040000fa
:04016000b0030000e8
:020000040000fa
:04016400b0030000e4
:020000040000fa
:04016800b0030000e0
:020000040000fa
:04016c00b0030000dc
:020000040000fa
:04017000b0030000d8
:020000040000fa
:04017400b0030000d4
:020000040000fa
:04017800b0030000d0
:020000040000fa
:04017c00b0030000cc
:020000040000fa
:04018000b0030000c8
:020000040000fa
:04018400b0030000c4
:020000040000fa
:04018800b0030000c0
:020000040000fa
:04018c00b0030000bc
:020000040000fa
:04019000b0030000b8
:020000040000fa
:04019400b0030000b4
:020000040000fa
:04019800b0030000b0
:020000040000fa
:04019c00b0030000ac
:020000040000fa
:0401a000b0030000a8
:020000040000fa
:0401a400b0030000a4
:020000040000fa
:0401a800b0030000a0
:020000040000fa
:0401ac00b00300009c
:020000040000fa
:0401b000b003000098
:020000040000fa
:0401b400b003000094
:020000040000fa
:0401b800b003000090
:020000040000fa
:0401bc00b00300008c
:020000040000fa
:0401c000b003000088
:020000040000fa
:0401c400b003000084
:020000040000fa
:0401c800b003000080
:020000040000fa
:0401cc00b00300007c
:020000040000fa
:0401d000b003000078
:020000040000fa
:0401d400b003000074
:020000040000fa
:0401d800b003000070
:020000040000fa
:0401dc00b00300006c
:020000040000fa
:0401e000b003000068
:020000040000fa
:0401e400b003000064
:020000040000fa
:0401e800b003000060
:020000040000fa
:0401ec00b00300005c
:020000040000fa
:0401f000b003000058
:020000040000fa
:0401f400b003000054
:020000040000fa
:0401f800b003000050
:020000040000fa
:0401fc00b00300004c
:020000040000fa
:04020000b003000047
:020000040000fa
:04020400b003000043
:020000040000fa
:04020800b00300003f
:020000040000fa
:04020c00b00300003b
:020000040000fa
:04021000b003000037
:020000040000fa
:04021400b003000033
:020000040000fa
:04021800b00300002f
:020000040000fa
:04021c00b00300002b
:020000040000fa
:04022000b003000027
:020000040000fa
:04022400b003000023
:020000040000fa
:04022800b00300001f
:020000040000fa
:04022c00b00300001b
:020000040000fa
:04023000b003000017
:020000040000fa
:04023400b003000013
:020000040000fa
:04023800b00300000f
:020000040000fa
:04023c00b00300000b
:020000040000fa
:04024000b003000007
:020000040000fa
:04024400b003000003
:020000040000fa
:04024800b0030000ff
:020000040000fa
:04024c00b0030000fb
:020000040000fa
:04025000b0030000f7
:020000040000fa
:04025400b0030000f3
:020000040000fa
:04025800b0030000ef
:020000040000fa
:04025c00b0030000eb
:020000040000fa
:04026000b0030000e7
:020000040000fa
:04026400b0030000e3
:020000040000fa
:04026800b0030000df
:020000040000fa
:04026c00b0030000db
:020000040000fa
:04027000b0030000d7
:020000040000fa
:04027400b0030000d3
:020000040000fa
:04027800b0030000cf
:020000040000fa
:04027c00b0030000cb
:020000040000fa
:04028000b0030000c7
:020000040000fa
:10040000ef1b21000eff21000e01880000000000fc
:10041000000020000000e000020032000001200087
:100420002002880014000700440107000000e000db
:1004300003003a00c0fb2100010020000200370049
:100440000000200001002000810f70000100320038
:100450000f000700000020000000e0000200320052
:100460000000020000000000a61e020000000000c4
:100470000040da000000fe00400020000000e00024
:1004800002003200002020009001880000000600d9
:10049000a1028800800478000000eb001f003700f4
:1004a000e284440054a0b4009905ba00e2844400f8
:1004b00054a0b4009906ba00e284440054a0b400e9
:1004c0000006eb00476fde00fd07b200ae018800ba
:1004d000636ce10003003a000ad801000000eb0061
:1004e0000e003700606ce10008003a00004deb00a0
:1004f0000a05e800020039003420ec000af0a000f0
:100500008b05e900f9ff3e00040037006168e10057
:10051000010032000086eb000b00070019c7ba008b
:100520000e04e0001905ba0003003a000a00e000da
:10053000dbff3a0000000600fe07b200ae028800b2
:100540008a047800f5ff37000cd0a300e20f4d00bd
:100550001c00390089027800354dba000a05e80010
:10056000020039003420ec000af0a0008b05e900fd
:100570000f003200254dba000a05e80002003900dc
:100580003420ec000af0a0008b05e90008003200de
:100590000c00e0000600320015cdba000a05e800a4
:1005a000020039003420ec000af0a0008b05e900bd
:1005b0008984e80054a0b4000b00e000e2ff3a0098
:1005c000000006009902ba00055d78008b05e9007d
:1005d000f7ff3200c82ade00055d78008b05e900d0
:1005e000f3ff32000c00e000f1ff320019ddba0029
:1005f000eeff3700000000000000000000000000d7
:1006000000000000000000000000000000000000ea
:1006100000000000000000000000000000000000da
:1006200000000000801f78000000fa0010408000e9
:10063000620060000000e0000300320010c0b30060
:10064000dbf0b7000228a9000080fa004f00780014
:10065000004006003600f800809fbe00829fbe006a
:10066000849fbe00869fbe000000fa0010408000fc
:10067000610060000000e0000800320010c0b3001c
:10068000daf0b7000208a90018080700a086800069
:10069000e60f500001003a00140807000080fa003d
:1006a0004f03be004f02be004f01be004f00be0010
:1006b0003600f900004006003600f800809fbe00ba
:1006c000829fbe00849fbe00869fbe000200fa008b
:1006d0000140800000802000008060000000e000f9
:1006e0001800320030118000004f78000168a90026
:1006f00010118000640060000000e0000200320081
:100700006e70ef000f003700101180006200600073
:100710000000e000090032000040eb00c70c0700b9
:10072000800b200001002000d10e070010c0b30094
:10073000c20c07006e70ef00020037001e40780008
:100740007f0c07000080fa004f03be004f02be007e
:100750004f01be004f00be003600f9000040060009
:100760000040da000000fe000a00fa00110020003c
:10077000b1bf9f00c0bf9f006a805700bb06070043
:100780004fb897000080fa00000006000a00fa0047
:10079000e20f500034003e00d08d8000e10f500089
:1007a00003003200e20f500011003a000c00370045
:1007b000032220000300e00001003a000040da00bc
:1007c0002002e200020035002822ef0021e2a8000a
:1007d0002342ab000d003a002342a8000b00370073
:1007e000032320000300e00001003a000040da008b
:1007f0003002e200020035003822ef0031e2a800aa
:100800003342ab0001003a003342a8008201780075
:100810000b0037003102fb00e10f500004003a00ea
:100820002322ab00feff3a002411880003003700aa
:100830003322ab00feff3a00a41188008301e900d7
:100840000300e000f3ff3a00e10f500003003a001c
:100850002302ab00feff32000b0037003302ab0077
:10086000feff32000800370033002000b3bf9f00b6
:10087000c0bf9f00d1bf9f00e2bf9f006a805700aa
:100880007c0607006fb99700020078000080fa002c
:10089000000006000a00fa0051002000b1bf9f00ce
:1008a000c0bf9f006a805700740607005fb89700ba
:1008b0000080fa0000000600889fbe0080047800d7
:1008c000e08d80000000e00004003a000e00070008
:1008d0000084eb000000e00008003500e88d800097
:1008e0000900e0000500320009004400060007008e
:1008f0000000e00001003d000084eb0008007800eb
:100900004f04be0000000600800078000100e000f7
:1009100003003a0000002000e08d88000000050080
:100920000080eb0002002000828f500002003e0099
:10093000e18d88000000eb000000060000000500cb
:10094000839f68000100e00002003d00600010008d
:10095000e08018000300e00002003d00600111008b
:10096000e0811900070007004f00e00002003b0093
:1009700060001000e0801800000006001400200055
:10098000100037006022b800060220000000d000ee
:100990008180d2000482d2008582d2000000a000b3
:1009a0000202520083825a00030031000202420018
:1009b00083824a000000a1000603e900f3ff3a0029
:1009c00000000600889fbe008a9fbe00841f78003a
:1009d000170007004f00780011003300f0ff2f00d0
:1009e000838f6c0006003b00040565000a00a70029
:1009f0000800370009f0a6001000200008003700aa
:100a0000820f5400838f5c00030039001000200027
:100a100001003e000000200009f0a7000000ea00ed
:100a20004f05be004f04be000000e00000000600bd
:100a30000004be00060007000003be000405be005f
:100a40000200be0002000700844f7500000006008f
:100a5000c70ade00f107b200f50fb200080032004d
:100a6000e1cf4200020032000170a0002400050026
:100a7000810f7000010032000408050044000500e9
:100a8000810f700002003a00140005008502e900a1
:100a90000000400081c04800fcff3b000170a00046
:100aa00024000500020037000204e0000b003200c1
:100ab000810178000002780030417800b14f510088
:100ac000f9ff32001000200014427800934f5200ca
:100ad000030031000080eb00000006000000eb0086
:100ae00000000600889fbe00000478000100780026
:100af0008204780088017800090178001100200044
:100b00000e000700890f5000010032000004eb00c6
:100b1000080078004f04be00000006000000fa0044
:100b2000e88157004fb9970061112100205720003c
:100b30005a0107000080fa0000000600889fbe00ee
:100b40008a9fbe008c9fbe008e1f78000006780032
:100b50000104780002007800830478008881b900dd
:100b6000020778000e00e000420032000800e000ba
:100b7000410032008e057800c900900069009000a5
:100b8000808f5000040039000900780050000700f1
:100b90000000e0002900350000402000190060003e
:100ba0000a0032000b017800a10020000c00780040
:100bb00036000700800678000d00e00006003200d5
:100bc000610516000a854600040037000b05780011
:100bd0008006eb00010037000b057800490090000b
:100be000e9009000808050008a8f500002003100a0
:100bf000010578008006eb000a0178008c0078007f
:100c00002c0007008a855500490090000a0040002a
:100c1000c00498000d00e0000400320009007800d4
:100c2000d60007000000e00004003a000b00e000de
:100c3000020032000a064600cfff37000080200085
:100c4000190060000200320009007800cb000700a4
:100c500000c020001900600002003200490090002e
:100c6000e00498008b055700110009008885d80022
:100c7000010037000000eb004f0778004f06be0070
:100c80004f05be004f04be00000006000300370001
:100c9000b0cf1000050032000201e90080017800a9
:100ca0000200e000faff3a000000050003007800af
:100cb000000006008001780002003700b15978007a
:100cc0000201e9000200e000fcff3a00000006001b
:100cd000889fbe008a1f780000047800c80090003a
:100ce000680190000000eb00828f50003c0039004a
:100cf000180078002200290002016000e20f510074
:100d000007003200012024000000e00001003d0047
:100d100001202000008c70000080eb0030003700c4
:100d20000200260002006000820f500009003a0015
:100d300038009000808f50000600390008007800cd
:100d40008e000700800078000080eb000100e000ca
:100d500023003a001805780000c02000000065005c
:100d600018003a00a804900060022000080040002b
:100d7000808f540013003a00002020000003070079
:100d8000200498000000e00005003a0029049800c3
:100d9000490498008904e8003904980008003700e5
:100da0000a60a0000a0c780040049800012020008e
:100db0008080400031049800400c9800500c98004e
:100dc0000c000700280090005004980038009000a4
:100dd0006004980000002600180c70000000eb0072
:100de0004f0578004f04be0000000600c0792000c7
:100df0009d003700881f7800681b21001804e00060
:100e000003003a00f9ff070020c0b300004c78004f
:100e10004f04780000000600889fbe0000047800a0
:100e200008007800550007008004780000042000c6
:100e30001800600002003200280090006b020700da
:100e40000000eb0020049800384090000004e0000f
:100e5000050035000000fb0043fe07000000e00035
:100e6000010032008084eb00181090000000e000c8
:100e70000800320087fe07000000e0000100320099
:100e80008084eb0018109000580207000000eb006f
:100e900010149800000820001800600015003200af
:100ea0000001eb006000b8000202d00063162100d0
:100eb00003024200940f140005003a0000004000b5
:100ec00081804800008041000008eb0006003700e8
:100ed00061004000e08048000201e800e80f500097
:100ee000e08f5800f0ff3a00080078003f0207004a
:100ef0000e003700000c780000c0eb003044980072
:100f0000600220000800400020049800400498007f
:100f100050049800400c980060049800500c980011
:100f20007004980076004400000c980009007800d6
:100f30004f04be0000000600881f78000004eb008c
:100f40006140b800e2ff2f00f3ff2f00d00407003c
:100f50004217210080004100110078000000e000ed
:100f600001003200acff07000804e800e80f54005d
:100f7000f3ff3a004f04780000000600889fbe008f
:100f8000000478000800e0000f003a008004eb0045
:100f90008800d0006016210000804000100078001a
:100fa0000000e00004003200f4ff07000000e00051
:100fb00001003d008084eb000804e800e80f5400c5
:100fc000f3ff3a00250037000000220018006000ff
:100fd0008004eb0021003200a80490000f003700cd
:100fe00009015100384090000000fb0089007800a2
:100ff000e6fd07000000e00007003c00280090002c
:101000004004980060049800500c98001890a000cc
:101010008084eb0011003700808444004801900078
:10102000828f5400eeff39002800900040049800a1
:101030009800780002c020000281600001003a00a0
:101040003800900001e8a30002003200600498001c
:1010500001003700500c98008004eb000900780074
:101060004f04be0000000600010020000100e00067
:1010700009003200010080000100e000060032009b
:101080008100e900010088008100d000020080009a
:101090008280400080087800000006006200fa00ac
:1010a000889fbe008a1f78000005780081047800c0
:1010b000020478008300780080f92f000f004000c0
:1010c000680407009a979f00a9979f000000eb0013
:1010d000b09f9f001885fb008a04fb000a05ea0008
:1010e0004f55de0050022000808f54000d0032006a
:1010f000e10f55000b003a000a01780088007800e3
:101100002f9097009f91970003000100a0979f00e8
:101110000000e0008e0032003f9897000000e800d9
:10112000b09f9f000a04440050022000808f5400aa
:10113000040032000900e000e6ff3a003f98970003
:10114000840037000000eb00909f9f00809f9f006d
:10115000f0979f00e0979f00d0979f00c0979f0057
:1011600007003700c11a21000100500000004000b4
:10117000011a2100808040005f98970011007000e4
:10118000d09f9f00880478000904780038457800d3
:101190008a00fb00c01a2100230207000000e000c3
:1011a000f0ff3a00a1c2b300814f55000e003a0093
:1011b000cf8897000180e900c08f9f001000780061
:1011c000c09f9f000000e00005003d000000ea0015
:1011d000c09f9f005f9897000020a000d09f9f00b5
:1011e0000904e8000f003700c09f9f000000eb00db
:1011f00005003700f2ff2700820f50000200320086
:10120000ea00b900008040000904780088047800f2
:10121000b900fb000103b100e98f5000f5ff360073
:10122000c09f9f00e0c2b300984f10000200320040
:101230000080eb0019003700a0c2b300d84f1000a7
:1012400007003a00cf8897000180e900c08f9f0017
:1012500010007800a09f9f000804e80010003700ed
:101260000000eb00a09f9f00880078000500370079
:10127000f3ff2700830f500002003200ea00b9009c
:101280000000410001047800880078003101fb0073
:101290000203b100e90f5100f5ff3600a09f9f0047
:1012a000984478008900fb0080192100de010700c6
:1012b0000000e000020032000804e80001003700ee
:1012c0008044eb00c97f9f0080c6b30080cf5400ec
:1012d00004003a0098cf14000a003a00664050001b
:1012e00006003700c0c6b30080cf540005003a00a6
:1012f00098cf140003003a0065404000c07f9f0073
:101300000804e8001801fb00e3fb2f008f81410077
:1013100081f92f008f804000a0f92f000f004000be
:10132000100007000000e00009003a00e1fb2f0078
:101330008f804000a0f92f000f0040000d03070030
:101340000000e000020035000804e80061ff3700fb
:101350000080eb004f0578004f04be000080fa00cb
:1013600000000600889fbe008a9fbe00e4c6b3004e
:10137000844f5100ce00320010003c006b425200fe
:10138000844f51001800320005003c0054c2b300e5
:10139000844f51000601320084c5b3000f003700ae
:1013a00044c6b300844f510015003200654242002c
:1013b000844f510001013a001100370004c7b30007
:1013c000844f5100ed0032005f003500654242005d
:1013d000844f51005c00320063424200844f510050
:1013e000f6003a00580037001181e90082087800c1
:1013f000f00090008181410092497800f5003700ab
:1014000020629000c5c6b300854f520008003a0024
:10141000910278006482520084087800940290005f
:10142000140278004fabde00860378001600370008
:1014300015c7b300854f520003003a00110478002d
:101440006802540005003700a5c6b300854f52005e
:1014500008003a00910478006882540084087800fb
:101460009402900024039000b403900014027800ca
:10147000050037001182e900840878001402780022
:10148000cfa2de00612bb9000498be000690be001a
:10149000a060900088c6b30088cf50000d003200d5
:1014a00028c6b30088cf500004003a000402fb00b5
:1014b000cfa2de00612bb9000800370048c7b30097
:1014c00088cf5000030032006644440088cf5000ab
:1014d00004003a00cfa2de00612bb9000498be00e0
:1014e0000690be0010027800900290002003900049
:1014f000b0039000f0009000e00f5200e08f5a001f
:10150000e00f5b00e08f5b0003003d0001824100c3
:10151000d5c2b3000a003700001290000418a300df
:101520000300320001824100b5c2b300040037005d
:101530000408a300590032000182410005c2b30033
:10154000054a78005300370020629000c5c6b300fa
:10155000854f520009003a001105780064025500d9
:101560008408780014047800940490006055b80052
:101570000802be000a03be001600370015c7b300fc
:10158000854f520003003a009104780068825400ad
:1015900005003700a5c6b300854f520008003a0089
:1015a00011057800680255008408780094029000c4
:1015b00024039000b4039000140278000500370063
:1015c0001182e90084087800140278008002eb00a0
:1015d0006033b8000498be000690be00a060900082
:1015e00088c6b30088cf50000d00320028c6b30073
:1015f00088cf500004003a000482fb008002eb0018
:101600006033b8000800370048c7b30088cf5000e7
:10161000030032006644440088cf500004003a00c2
:101620008002eb006033b8000498be000690be0054
:10163000801090000138a3001800320010027800da
:101640009002900020039000b0039000e00f520041
:10165000e08f5a00e00f5b00e08f5b000f0032006c
:1016600081c7b300814f51000300320081c5b30030
:10167000814f510009003a00f000900001824100c2
:1016800005c3b300054a78008100e80001824100eb
:10169000024a78008100e80071009800f000900094
:1016a0008181410063009800824078003e0037004d
:1016b000a0619000c4c6b3001181e90084cf51003d
:1016c000220032000a003c006442520084cf5100e4
:1016d0002500320004c2e80084cf5100130032001c
:1016e0006842520084cf51001e003a000a003700c1
:1016f00044c7b30084cf51001b0032006642420051
:1017000084cf5100180032006942520084cf51004a
:1017100014003a0005003700820878009200780033
:1017200040589000804878002c00370082087800ec
:1017300092007800600a9000cfa2de00612bb90011
:101740008498be008690be0024003700820878008e
:101750009200780060099000cf91de008288be0080
:101760001e0037001181e90082087800920078009d
:101770006008900080087800180037001181e900a7
:101780008208780012027800cfa2de00612bb90037
:101790000498be000690be00f000900081814100d8
:1017a0006300980081c7b300b50007000b00370045
:1017b000f00090008181410005003700f0009000aa
:1017c000818141000204e00001003a0052c2b300ee
:1017d000824978008100e800710098000000eb0069
:1017e0004f05be004f04be00000006000000e000f0
:1017f0002f003200c0017800e38f51002c0036002a
:101800000308a3002a003a00a18d80000100e00037
:1018100002003200810f50000400310011009800d6
:10182000a08d88001600370082007800110190001a
:101830000200e00002003200800f5100faff390080
:101840001102780084824000850f50001800390092
:10185000808f520003003a008308420001007800a4
:10186000070037000200e00003003200830140005f
:10187000830f51000e00390012009800900098006c
:10188000900090000100e0000900320010014000cb
:10189000828f500006003a00221b21000009eb0055
:1018a000100178001108410091009000110098008b
:1018b00000000600889fbe0000047800918d800023
:1018c0000100e00002003200010078000d00370046
:1018d000a18d8000401b210004003700910f5400af
:1018e000250036000180e800910090000100e00032
:1018f000faff3a0010003700920f54001e00360025
:101900000280e800100178000200e000faff3a00cf
:1019100011017800a18d8000401b210004003700d8
:10192000910f5400140036000180e80091009000ef
:10193000828f5000faff3a00c98d8000888f5400d2
:101940000100310088047800090078004200070097
:101950000000e00004003a00888f540005003200c7
:101960008904d100f5ff3700091878009fff0700b0
:10197000d2ff37000000eb004f04be00000006005d
:10198000881f7800630440000800a1008000eb007d
:10199000800f540021003600e30f540001003e0088
:1019a0004800200008007800c2ff07008000eb001c
:1019b0000000e000190032009000780091017800ea
:1019c00064815100880f5100030031001101900023
:1019d00002087800070037000881400002087800fc
:1019e0009101900013019800100178001109140072
:1019f00088087800100178000000eb000200e00089
:101a000004003200920190000300e0000100320067
:101a10000280e800908d88008180e8000100780055
:101a20004f04780000000600020037000304e000c5
:101a3000060032000001780002007800b041780012
:101a400081cf5100f9ff3a00010037000001eb009f
:101a50000200780000000600800078000000eb0023
:101a60000100e000050034000100780092fb07004f
:101a7000e10f400001003a000000eb00000006000a
:101a8000fc874700889fbe008a9fbe008c9fbe00d7
:101a90008e1f78000006780080c5b30080cf50000c
:101aa0000a0032007740400080cf50000a00320028
:101ab0006940400080cf50000b00320070182100b8
:101ac00080bf9f00ae0020000a003700621721008f
:101ad00082bf9f00060037007318210083bf9f005c
:101ae0008e002000030037007418210084bf9f007f
:101af0000e0120001c0278009c0290002c03900034
:101b0000bc0390000605be000404be0040c6b3003e
:101b100080cf5000030032006540400080cf50006d
:101b20000b003a00e00f5200e08f5a00e00f5b001c
:101b3000e08f5b0006003d006000b8006011b80057
:101b40000404500085845800060559008785590013
:101b5000e80f57000400320040002000f00f57004b
:101b60003c003a000100370030002000e00f540034
:101b7000e08f5c00e00f5d00e08f5d0004003a0044
:101b8000dc0890008d0120000100e0000700320019
:101b90008e00e900888060008fba97008180420043
:101ba00091407800f1ef9f007d01200080007800d7
:101bb0008100e900050033008b05d1000a85d300c0
:101bc0008984d3000884d300f9ff3700089ebe0043
:101bd0000a96be00130037008d06e9008e00e9006a
:101be000848060000fb997008100410011417800a6
:101bf00083fd2f008d81410082f7790080017800fc
:101c00008301e900050033008783d1000683d300f8
:101c10008582d3000482d300f9ff3700049ebe0002
:101c20000696be001c0278009c0290002c039000d7
:101c3000bc039000e00f5200e08f5a00e00f5b0001
:101c4000e08f5b00930034000d00e000e2ff3c00f9
:101c5000900037002c60900081c6b300814f500087
:101c60000b00320006003c000004e00008003200d7
:101c7000e6c05000814f500052003a000400370087
:101c8000c1c6b300814f50004e003a002300370018
:101c90000800e00004003a005c0890008d0120007c
:101ca0000000e00007003200110009000e84d80097
:101cb0000fba97000100420010407800f0ef9f003b
:101cc0007d012000110009000e84d8000b003700b0
:101cd000110009000e04d8008d06e9008e81b900bc
:101ce000020454008fb8970008844000984178009f
:101cf00082fd2f000d0141008377790000047800f8
:101d00000800e000020032000d00e000f0ff3c009f
:101d1000cfc4de00614db90027003700e00f54004a
:101d2000e08f5c0004003a005c0890008d01200008
:101d30000000e000080032006171b9000800be0038
:101d4000500107000fba97008000420091407800d0
:101d5000f1ef9f007d0120006171b9000800be0015
:101d600008fb07000c0037006171b9000800be00d5
:101d7000f3fa07008d06e90080f1b900020454006f
:101d80008fba9700088442009841780082fd2f00a6
:101d90000d014100837779000004be00e00f500080
:101da000e08f5800020032000d00e000eeff3c0022
:101db0004fcdde008a057800089ebe000a96be0060
:101dc00034003700e00f5400e08f5c00e00f5d004e
:101dd000e08f5d0004003a005c0890008d01200057
:101de0000000e0000a0032006172b900612bb90006
:101df0000800be000a01be00cd0107000fba97001f
:101e00008000420091407800f1ef9f007d012000aa
:101e10006172b900612bb9000800be000a01be0062
:101e2000bc0107000e0037006172b900612bb900d8
:101e30000800be000a01be00c10107008d06e900ce
:101e400080f2b900040454008fba9700088442005d
:101e50009842780084fd2f000d02420085777a00b9
:101e6000009ebe000296be001c0478009c049000f8
:101e70002c059000bc059000e00f5400e08f5c0042
:101e8000e00f5d00e08f5d00020034000d00e00017
:101e9000e5ff3c00e80f570010003a000c109000de
:101ea0000038a3000d003200f78f560006003e00f8
:101eb00080fd2f000d004000ef40780000c3b3000c
:101ec00080cf50000500320002c3b30071fd2f0027
:101ed0008d8040008d06e90082f778007881160039
:101ee000120e98006c00900083fd2f008f8141003e
:101ef0008d8041006ffb07001c089000dc089000fb
:101f0000810f500006003d0000805000000e980038
:101f10000c1090000040a100001698000f00370040
:101f20000100e0000d003d008c109000f480600086
:101f3000f08f500009003a007c099000fc009000ee
:101f4000810051000c0990008280500000805000f8
:101f50004240a90001003400000e98004f077800ad
:101f60004f06be004f05be004f04be00cf01b100ba
:101f7000000006000400fa00889fbe008a9fbe0091
:101f80008c1f78000004780001067800f80d90009e
:101f900078009000808555000808900080855500e5
:101fa000180890008085550028089000808555000d
:101fb00038089000808555004808900080855500bd
:101fc0000002220090bf9f0000032300a0bf9f00db
:101fd000081090000028a30015003a000b00e00054
:101fe000130034000b0578008a047800e20f5500d6
:101ff0000100360029002000c80190000901780086
:10200000ee80570058009000030001005004980033
:102010000000e0008c0032006808900009004000d9
:10202000600c9800090555004240a900eeff3c00f5
:10203000780190000200e0000c003400c80190001c
:102040008c007800580090000300010050049800b4
:102050008080eb000000e0007c003200e808900087
:102060007800900000804000600c9800880c900080
:102070000900e0001100340009057800e28f5400e7
:10208000010036002a002000c80190000a017800f3
:10209000ec805700580090000300010050049800a5
:1020a0000000e00068003200680890000a0040006c
:1020b000600c98008a845400edff370018099000e6
:1020c0000200e0000c003400c8019000e80090001d
:1020d0005800900003000100500498008080eb003d
:1020e0000000e00059003200e80890001808900055
:1020f00000804000600c9800a80c90000900e000ef
:102100001100340009057800e28f54000100360008
:102110002a002000c80190000a017800ec805700d6
:102120005800900003000100500498000000e000f7
:1021300045003200680890000a004000600c9800da
:102140008a845400edff3700380990000200e00057
:102150000e003400e80090001808900080804000d5
:10216000c80190005800900003000100500498003e
:102170008080eb000000e00034003200e8089000ae
:102180003808900000804000600c9800c80c900057
:102190000900e0001100340009057800e28f5400c6
:1021a000010036002a002000c80190000a017800d2
:1021b000ec80570058009000030001005004980084
:1021c0000000e00020003200680890000a00400093
:1021d000600c98008a845400edff370008109000ce
:1021e0008000eb000028a300180032000b00e00084
:1021f000160034008b04780009057800e28f540043
:10220000010036002a002000c80190000a01780071
:10221000ee80570058009000030001005004980021
:102220000000e00008003200680890000a0040004a
:10223000600c98008a8454004240a900eeff3c00e4
:102240008000eb00010037008080eb000100780087
:102250004f0678004f05be004f04be000080fa0014
:1022600000000600010878000000060000c0da0047
:102270000000060000c0da000000060000c0da001e
:1022800000000600bff907000400be0000000600c1
:10229000020ab900001bb9000200b8008100420028
:1022a0008100430000000600889fbe008a9fbe0098
:1022b00030044200b0844a0030054b0090854b004a
:1022c0006000b1000898be000a90be000440e10022
:1022d00005c8e10006d0e10007d8e10002003100a6
:1022e000680040001008e8004f05be004f04be0023
:1022f00000000600889fbe008a9fbe001004780080
:102300009004900020059000b0059000041854003f
:1023100005985c0006185d0007985d00110020001c
:102320000440e10005c8e10006d0e10007d8e10063
:10233000010039008000eb00108810004f05be003e
:102340004f04be00000006001200fa00889fbe0085
:102350008a9fbe008c9fbe00e0b79f00f1b79f0030
:1023600082bf9f0093bf9f000605be000404be000d
:102370000000eb00d0b79f00c0b79f00b0b79f0030
:10238000a0b79f0090b79f000006eb005fb19700d9
:10239000cfb09700820141003fb097000200e000fb
:1023a00004003d00370007007e805700beff070095
:1023b00003003700330007007e805700cdff070081
:1023c000dfb697000d00e0000c0035006fb29700fb
:1023d000ffb297000fbb97009fbb97001000200033
:1023e000010020006011b8000002720081827200ba
:1023f00002037300838373001b0007000c06e800d0
:1024000001042000810f5600e0ff3a000d00e000bb
:1024100004003d000802be000a03be007e80570093
:10242000a1ff07005fa897000000e00005003a0048
:102430001fb29700afb297003fb39700cfb397009a
:10244000090007006fb09700ffb097000fb9970021
:102450009fb997004f06be004f05be004f04be0057
:102460000080fa00000006000100070000000600de
:10247000a4b79f00b5b79f00c6b79f00d7b79f000e
:10248000000006004f09de0082817100b3b79f0093
:102490004f01de008180400082807000a1b79f0064
:1024a0008fb097004f09de0000004000020070006e
:1024b00090b79f007fa897004f01de008180400009
:1024c0008280700081b79f000d0007004f3ade0048
:1024d0000000400004007000f0af9f0008000700fb
:1024e0000402420085824a0006034b0087834b00aa
:1024f000dfff07000802be000a03be00000006005e
:102500002fb29700bfb297004fb39700dfb3970089
:1025100000000600881f780018002000881f78003f
:1025200089ff07008f87e9004f047800000006004c
:10253000801feb0084ff07008f87e9000000060082
:10254000889fbe008a9fbe00e00f5000e08f5800b9
:10255000e00f5900e08f59000c003d006044b800c6
:102560006055b8000000540081805c0002015d00ed
:1025700083815d00180020001500070008003d0061
:10258000180007000004eb00050037000004eb0012
:102590000f00070002003d00120007001800200095
:1025a000dcff07000800e000060032006022b800ef
:1025b0006033b8000000520081805a0002015b00c5
:1025c00083815b004f05be004f04be000000060083
:1025d000e00f5200e08f5a00e00f5b00e08f5b00dd
:1025e000000006006044b8006055b80004025400c2
:1025f00085825c0006035d0087835d0000000600a5
:10260000889fbe008a9fbe008c1f7800e00f50009c
:10261000e08f5800e00f5900e08f59000d003d0099
:102620006044b8006055b8000000540081805c0030
:1026300002015d0083815d001c0020000820e10094
:1026400009a8e1000ab0e1000bb8e1000d003d006f
:10265000080037000006eb00e00f5200e08f5a0040
:10266000e00f5b00e08f5b0006003d006044b800b7
:102670006055b8000402540085825c0006035d00ca
:1026800087835d00aaff07000c00e000060032000f
:102690006022b8006033b8000000520081805a0008
:1026a00002015b0083815b004f0678004f05be008e
:0826b0004f04be00000006000b
:020000040000fa
:0826b800256400000000000091
:020000040000fa
:1026c0000200fa00000f7800401080001e00600039
:1026d00000f0a7000000ea000000ea004f00de0062
:1026e000004078000080fa00000006000000fa00b8
:1026f000a0868000e40f50005f003200e40f50001d
:1027000005003e000000e0000a003200e30f500028
:10271000320032000a013700e60f5000ea003200b2
:10272000e60f500091003900ed0f5000d300320049
:1027300003013700d870ef0010c0b300e0f0b7001d
:10274000e430ef0010c0b300ddf0b70080002000df
:10275000dbff07000004e0000b0032000002200055
:10276000d7ff07000004a2000004e00006003200ca
:102770000010800000407800def0b700300020003c
:10278000a086880004003700a0cfb300e0f0b700b7
:1027900060002000a086880000402000c8ff0700dd
:1027a0000004e00004003200d0cfb300e0f0b70036
:1027b00060002000a086880000042000c0ff070001
:1027c0000004e000d5003200e0cfb300e0f0b70035
:1027d00060002000a0868800d90037000002200099
:1027e000b7ff07000004e0000e0032000010800078
:1027f00000407800eaf0b700ead0bf006f40600008
:10280000dff0b700ead0bf000080fb004400de002c
:1028100000407800e1f0b70040002000a08688006a
:102820000400370090cfb300e0f0b7006000200054
:10283000a086880000402000a1ff07000004e000ff
:1028400004003200d0cfb300e0f0b70060002000f9
:10285000a08688000004200099ff07000004e00023
:10286000b0003200e0cfb300e0f0b700600020001d
:10287000a0868800b20037000002200090ff070009
:102880000004a2000004e0001900320000108000e3
:1028900000407800def0b70031878000e00d2100b5
:1028a00001000100208780000080e80080004000d7
:1028b000e00d210000804000104078000080fb0007
:1028c0001010880000000000100020007cff0700ae
:1028d0000004a2000004e000fbff3a000782a80009
:1028e000dd70ef0020c0b300e0f0b7000c0037004f
:1028f0002087800001108000814078000080e8007f
:1029000000014000e00d2100000041000148780076
:1029100010c0b300ddf0b70030c0b300e0f0b70086
:1029200050002000a08688000040200064ff0700bf
:102930000004e00004003200d0cfb300e0f0b700a4
:1029400060002000a0868800000420005cff0700d3
:102950000004e00075003200e0cfb300e0f0b70003
:1029600060002000a0868800750037002087800066
:102970000000e80020878800ddd0bf000004a2002e
:102980000004e0001a003200208780000080e80088
:1029900080004000e00d21000080400010407800e1
:1029a0000080fb00101088000000000010002000d4
:1029b00043ff07000004a2000004e000fbff3a0010
:1029c0000782a800e1d0bf008080fb002087800044
:1029d000808f50000300360040002000a086880051
:1029e00015003700d0002000a086880012003700b4
:1029f0002087800001108000814078000080e8007e
:102a000000014000e00d210000004100114098004d
:102a1000e1d0bf008080fb0020878000808f5000c5
:102a20000300360040002000a08688000200370026
:102a300060002000a08688000040200020ff0700e2
:102a40000004e00004003200d0cfb300e0f0b70093
:102a500060002000a08688000004200018ff070006
:102a60000004e00033003200e0cfb300e0f0b70034
:102a700060002000a0868800310037006000200040
:102a8000a0868800004020000dff07000004e00041
:102a900004003200d0cfb300e0f0b70060002000a7
:102aa000a08688000004200005ff07000004e00065
:102ab00022003200e0cfb300e0f0b7006000200059
:102ac000a08688001e003700d430ef0010c0b3008d
:102ad000d8f0b70020002000f9fe07000004e00055
:102ae00004003a0000042000f5fe07000004e000a6
:102af000040032000010800000407800e2f0b700cf
:102b000008c2a90042878000f0868000018780000b
:102b10000200010000000000090037000000000072
:102b2000070037000000000005003700000000002b
:102b30000300370000000000010037000000000023
:102b40000080fa00000006000000fa000040eb00e0
:102b50003a000700d630ef0010c0b300d9f0b7003c
:102b600010c0b300dcf0b700e230ef00e430ef005b
:102b700016cea90016aea90010cea90010aea9006d
:102b80000622ef000822ef00400b200020108800f2
:102b90000228a90041428000f0f82f0080806000e8
:102ba0000005200001007000404288002228a80093
:102bb0000080fa00000006000600fa00000f78000e
:102bc00011079800220798000040eb001b00070047
:102bd00016cea90016aea90010cea80010aea8000f
:102be0000622ef000822ef000c22ef009e00780082
:102bf00051108800d430ef0010c0b300d8f0b700f7
:102c000010c0b300dcf0b7009e0090003187880050
:102c1000ae009000418788000208a9004142800070
:102c200080ff2f00008060005000b3004042880009
:102c30002208a8000080fa00000006000200fa0046
:102c4000004f78001e4078000004e00002003200cf
:102c500007e2a8000100370007e2a9000080fa009f
:102c6000000006000000fa000622ef000822ef0034
:102c7000d630ef0010c0b300d9f0b70010c0b300d9
:102c8000dcf0b700d430ef0010c0b300d8f0b700cc
:102c900010c0b300dcf0b700e430ef002228a90038
:102ca0000228a9002228a8002208a9000208a900d9
:102cb0002208a80010c0b300e0ff07000080fa005f
:102cc000000006000400fa0010079800d9d0bf00e9
:102cd0000004a2000004e000040032001e00900086
:102ce00081cfb300214098000f0137001e009000f3
:102cf000304090000080fb004400dd008040780000
:102d00001e009000104090006f40600000c07000f6
:102d1000004f7800d970ef00db70ef00e230ef0079
:102d2000e430ef001e00900011c0b3002140980075
:102d3000f9003700b08680008000eb00d200200050
:102d400003002000820f5000838f5800e3003e00f4
:102d5000000601000d00370026003700290037006b
:102d6000610037007e003700a1003700d300370034
:102d7000da003700d9003700d800370041003700ab
:102d80005e00370081003700a5003700dcd0bf00af
:102d90000004e00004003200dc70ef0010002000ae
:102da000b0868800dc0037008000200044fe070069
:102db0000004a2000004e00007003200000120002f
:102dc0003ffe07000004e000030032001000200076
:102dd000b0868800d00037001e00900080c0eb0055
:102de0002140980010c0b300d9f0b700d630ef00f2
:102df000c90037000602a80020002000b086880025
:102e0000c5003700dbd0bf000004e000b70032008f
:102e1000e230ef00db70ef008000200028fe0700aa
:102e20000004e000100032000001200024fe070032
:102e30000004a2000004e0000b0032001e0090001d
:102e4000104078000080fb00000040008000780007
:102e5000f00f20000080600010108800a00020000b
:102e6000b0868800ac0037000642a8006000200051
:102e7000b08688001e00900080c0eb0021409800c2
:102e8000a5003700dbd0bf000004e000990032004d
:102e9000e230ef00db70ef000000280008fe0700c2
:102ea0000004a2000004e000080032000008200036
:102eb00003fe07000004a2000004e000030032004b
:102ec00030002000b0868800930037000642a8003a
:102ed00060002000b08688001e009000c1cfb300c3
:102ee000214098008c0037001e80fb0010108800e5
:102ef000b0002000b086880087003700dbd0bf001c
:102f00000004e0007d003200e230ef00db70ef00f3
:102f100000002800eafd07000004a2000004e00011
:102f20000800320000082000e5fd07000004a200b0
:102f30000004e0000300320040002000b08688005a
:102f4000750037000642a80060002000b0868800a7
:102f50001e009000b1cfb300214098006e003700f2
:102f6000208780009e0090000080e8000000400064
:102f700000804000104078000080fb0010108800a6
:102f8000c0002000b086880063003700dbd0bf009f
:102f90000004e0005b003200e230ef00db70ef0085
:102fa00000002800c6fd07000004a2000004e000a5
:102fb0000800320000082000c1fd07000004a20044
:102fc0000004e0000300320050002000b0868800ba
:102fd000510037000642a80060002000b08688003b
:102fe0001e009000b1cfb300214098004a00370086
:102ff000208780009e0090000080e80000004000d4
:10300000008040000000e800104078000080fb00d5
:1030100010108800d0002000b08688003e003700e5
:10302000dbd0bf000004e00038003200e230ef00e7
:10303000db70ef0000002800a1fd07000004a200e3
:103040000004e00016003200000820009cfd07008c
:103050000004a2000004e00011003200208780007c
:103060000000e800208788001e009000304090009b
:103070008080fb0020878000808f50000300360096
:1030800040002000b0868800030037000642a800f8
:1030900060002000b0868800000000001e0037009d
:1030a0000642a80060002000b08688001e00900044
:1030b000b1cfb3002140980017003700dbd0bf002c
:1030c0000004e00013003200db70ef00d630ef00a8
:1030d00010c0b300d9f0b7000f003700d630ef00b2
:1030e00010c0b300d9f0b7000b003700000000009b
:1030f0000900370000000000070037000000000052
:103100000500370000000000030037000000000049
:103110000100370000000000d9d0bf000004a20069
:103120000004e00003ff3a000080fa0000000600ff
:103130000400fa0010079800d9d0bf000004a200d4
:103140000004e000040032001e00900081cfb300b4
:10315000214098002b0137001e0090003040900065
:103160000080fb004400dd00804078001e009000dd
:10317000104090006f40600000c07000004f780069
:10318000d970ef00db70ef00e230ef00e430ef00c9
:103190001e00900011c0b3002140980015013700b7
:1031a000b08680008000eb00e200200003002000d9
:1031b000820f5000838f5800f7003e000006010088
:1031c0000e003700270037002a0037006200370062
:1031d0009d003700b7003700e70037009100370047
:1031e0007b003700ec003700420037005f003700fb
:1031f000a7003700cd00370079003700dcd0bf00d2
:103200000004e00004003200dc70ef001000200039
:10321000b0868800f70037008000200028fd0700f6
:103220000004a2000004e0000700320000012000ba
:1032300023fd07000004e00003003200100020001e
:10324000b0868800eb0037001e00900080c0eb00c5
:103250002140980010c0b300d9f0b700d630ef007d
:10326000e40037000602a80020002000b086880095
:10327000e0003700dbd0bf000004e000ca003200ed
:10328000e230ef00db70ef00800020000cfd070053
:103290000004e000100032000001200008fd0700db
:1032a0000004a2000004e0000b0032001e009000a9
:1032b000104078000080fb00000040008000780093
:1032c000f00f20000080600010108800a000200097
:1032d000b0868800c70037000642a80060002000c2
:1032e000b08688001e009000c1cfb3002140980036
:1032f000c0003700dbd0bf000004e000ac003200ab
:10330000e230ef00db70ef0000002800ecfc07006b
:103310000004a2000004e0000800320000082000c1
:10332000e7fc07000004a2000004e00003003200f4
:1033300030002000b0868800ae0037000642a800aa
:1033400060002000b08688001e009000c1cfb3004e
:1033500021409800a70037001e80fb001010880055
:10336000b0002000b0868800a2003700dbd0bf008c
:103370000004e00090003200e230ef00db70ef006c
:1033800000002800cefc07000004a2000004e000ba
:103390000800320000082000c9fc07000004a20059
:1033a0000004e0000300320080002000b0868800a6
:1033b000900037000642a80060002000b086880018
:1033c0001e009000b1cfb300214098008900370063
:1033d0000622a800e0002000b086880085003700a3
:1033e000dbd0bf000004e00075003200e230ef00e7
:1033f000db70ef001e009000104078000080fb00a2
:103400000000400080007800f00f20000080600085
:103410000000e8001010880070002000b0868800ce
:1034200074003700dbd0bf000004e000660032000b
:10343000e230ef00db70ef000662a80040002000e1
:10344000b08688006b003700dbd0bf000004e000ce
:103450005f003200e230ef00db70ef002087800079
:1034600001108000814078001e0190000080e8007b
:1034700000004000000041000148780006a2a900b9
:103480000682a800c0002000b086880059003700de
:10349000dbd0bf000004e0004f003200e230ef005c
:1034a000db70ef000662a80050002000b0868800a4
:1034b00050003700dbd0bf000004e00048003200bd
:1034c000e230ef00db70ef00208780000110800009
:1034d000814078001e0190000080e800000040005c
:1034e000000041000000e8000148780020878000cb
:1034f0000000e800208788001e0090003040900007
:103500008080fb0020878000808f50000200360002
:1035100006a2a8000100370006a2a9000682a800a2
:10352000d0002000b086880032003700dbd0bf001a
:103530000004e0002c003200e230ef00db70ef000e
:103540001e009000304090008080fb0020878000ab
:10355000808f5000040036000662a8004000200062
:10356000b0868800230037000642a80060002000d3
:10357000b08688001f003700dbd0bf000004e000e9
:103580001b003200db70ef00d630ef0010c0b3003c
:10359000d9f0b70017003700d630ef0010c0b300e5
:1035a000d9f0b70013003700000000001100370009
:1035b000000000000f003700000000000d00370081
:1035c000000000000b003700000000000900370079
:1035d0000000000007003700000000000500370071
:1035e0000000000003003700000000000100370069
:1035f00000000000d9d0bf000004a2000004e000d9
:10360000e7fe3a000080fa00000006000400fa001d
:10361000889fbe001007980021e2a90021a2a900fe
:103620002182a90001118000f0cf2f0000806000ee
:103630000011880020e2a90020c2a90020a2a90050
:103640002082a9002062a9000111800090ff2f00b4
:1036500000806000001188002002a90023a2a900b8
:1036600023e2a90023c2a9002342a900111180006e
:10367000f0f32f00008060001011880022a2a90042
:103680001e0090008000eb000001be00804a220076
:1036900091112000aaf407004c09dd004404de006b
:1036a00008047100c48cde00080078000000e90006
:1036b000401188000300370030118000004f78006f
:1036c0001e4fe80010118000610060000000e00063
:1036d000f9ff3a002422ef000168a900214280008e
:1036e000f0ff2800808060000000260001007000cc
:1036f000204288002168a800108ea800008ea90032
:103700002136800000f82f008080600040022000f9
:1037100001007000203688000134800000fc2f007a
:10372000008060000000a000003488004f04be004c
:103730000080fa00000006000800fa002007980048
:10374000614798000040eb00004f78002e00900089
:103750009040780040c2b30080cf5000010032009a
:103760001e14a0006e4090000080fb000000e900e5
:10377000ae009000008040009040780060c2b3002e
:1037800080cf5000010032001e24a0002e009000c7
:103790000080e80090407800a0c3b30080cf5000c4
:1037a000010032001e34a0002e0090006400400092
:1037b00090407800a0c3b30080cf500001003200d9
:1037c0001e34a0006e4090000080fb00630050009b
:1037d000ae0090000080400090407800a0c3b3008d
:1037e00080cf5000010032001e34a0001e4078003f
:1037f0000004e0002a003a002e0090006300400020
:1038000090407800214798002e4090000080fb00f7
:10381000e80040006e4090000080fb00808f500068
:103820001e003a002e0090000000e80010407800d2
:1038300006f0b700ae409000420021000149780038
:103840000040eb00104798000f0037001e4090002a
:103850000081fb001e4090000080fb0065004000de
:10386000ae0090000080400010407800804078005a
:103870006000210000004100114098001e409000af
:103880000040e800104798009e4090002e409000b5
:1038900080cf5000edff3900010037001e44a0002a
:1038a0001e4078000004e00009003a006e409000dd
:1038b0000080fb000080e900ae0090000080400026
:1038c0001040780003f0b70003d0bf0010000700dd
:1038d0009e407800520021000149780060838000fa
:1038e000af06b00061f92f008f8040002200210058
:1038f00033000900b2187800b25878009106b10080
:1039000000000100af06b1000080fa0000000600d0
:103910000200fa00004f780040c2b30054000700d4
:1039200000c4b300520007001e407800500007009a
:1039300060c2b3004e0007000080fa0000000600dd
:103940000200fa00004f7800e10621009140780063
:1039500040c6b30080cf5000020036006e70ef000a
:103960002b003700d3d0bf000080fb00e10f5000d8
:103970000d003200e20f50001a00320040c2b300c6
:103980009e40780080cf500020003a0040c2b30033
:103990006ff0b70010c0b3006ef0b70010c0b300f6
:1039a000d3f0b7001a00370060c2b3009e40780021
:1039b00080cf500002003a0020c0b300d3f0b7001f
:1039c0006ed0bf008080fb00f00621000080400028
:1039d0001e4878006ed0bf000040e8006ef0b700cf
:1039e0000b0037001e4078000004e00004003a009d
:1039f0006ed0bf0080407800f00621004eff070027
:103a0000d370ef000000000001003700000000004c
:103a10000080fa00000006000400fa00000f7800a1
:103a2000110798009e009000618388001e007800b6
:103a3000f6fe07000080fa00000006000200fa000f
:103a4000004f78001e4078000004e00004003200bf
:103a50006e70ef0021e2a8002342a80002003700a8
:103a600021e2a9002342a9000080fa00000006001c
:103a70000200fa00004f78001e80fb002011880031
:103a80000000000011118000001020000080600084
:103a90000000e000fbff32000080fa00000006009a
:103aa0000000fa0030118000004078000080fa0029
:103ab000000006000200fa00004f78001e40780067
:103ac000ebff07000080fa00000006000400fa0087
:103ad000004f78001107980040c2b300e4ff0700d0
:103ae0001e407800e2ff0700a0c3b300e0ff07001c
:103af00060c2b300deff07000080fa00000006008d
:103b00000400fa00004f78001107980040c2b3008b
:103b1000d7ff070000d0bf000043b000d4ff07006c
:103b2000a0c3b300d2ff070010c3b300d0ff07004b
:103b3000a0c3b300ceff07001e00fb00801f78006b
:103b4000c0352900801f7800f4f30700e487570090
:103b5000a0c3b300c6ff07009e009000811f78003d
:103b6000c0352900801f7800ecf30700e487570078
:103b7000a0c3b300beff070020c3b300bcff070013
:103b8000a0c3b300baff070030c3b300b8ff0700fb
:103b900060c2b300b6ff07000080fa000000060014
:103ba0000000fa000040eb009e01070072010700d0
:103bb000580107008b0107009301070010c0b300f4
:103bc000980107000080fa00000006000000fa00db
:103bd0000080fa00000006000800fa003007980094
:103be00040232100000f78001032240010079800b5
:103bf000a05a2500200798003e0090003040900019
:103c00000080fb00e20f50000d003200e30f500077
:103c10001c003200e10f500034003a003e009000da
:103c2000e50040003e009000640040000101780083
:103c3000800078001e007800c00007002c003700cc
:103c40003e009000e50040003e009000640040000f
:103c500001017800800078001e007800b70007009e
:103c60003e009000e70040003e00900066004000eb
:103c700001017800800078001e009000af0007006e
:103c80001b0037003e009000e50040003e00900021
:103c90006400400001017800800078001e00780078
:103ca000a60007003e009000e70040003e009000a4
:103cb0006600400001017800800078001e0090003e
:103cc0009e0007003e009000e90040003e0090008a
:103cd0006800400001017800800078002e0090000c
:103ce00096000700000000000100370000000000ff
:103cf0000080fa00000006000600fa001007980095
:103d0000210798001e009000ae00900002000700fe
:103d10000080fa00000006000400fa00000f78009e
:103d2000110798002e409000ecf0b700ecd0bf00d7
:103d30000004e00002003c000040eb0001003700fe
:103d400010c0b3000080fa00000006000000fa0076
:103d500093ff070040d42100c10120004401070067
:103d600061de210000102e002bff0700c2e72100ba
:103d7000c1de2100300020008ffb070040d421006d
:103d8000c10120003a010700ffff37000400fa00dc
:103d9000000f7800110798009e0090001e00780028
:103da00040f3070000f0a7000000ea000000e9006f
:103db0004f00de00004078000080fa00000006009e
:103dc0000800fa00300798000000eb00000f7800b0
:103dd0000000eb00200798000000eb00100798009f
:103de000130037003e009000104078000000fb00f8
:103df0000003b100200798001e0090000000e000c2
:103e0000030032001e007800ea00b900000f7800bd
:103e10002e0090001e0f40001e0090000000e800e1
:103e2000100798003e0090000000e800300798005e
:103e30003e009000104078000004e000e9ff3a00e6
:103e40001e0078000080fa00000006000c00fa0056
:103e5000881f780040079800510798004e00900096
:103e6000301f7800201778000000eb002007980032
:103e700010002000300798001a0037003e00900024
:103e80004200dd00ce0090000080400090009000d5
:103e90001000780018c0b3001e0178009e01900049
:103ea000b6f207000000e000010035000044eb001e
:103eb0000804e000080032003e0090004200dd00ef
:103ec000ce00900000804000301f7800201778005e
:103ed000be009000210798003e0090000000e8001e
:103ee00030079800be0090005e009000808f500068
:103ef000e2ff39002e0090004f0478000080fa00a5
:103f0000000006000400fa00004f780011479800f6
:103f1000120798001e80fb00c800dd001e409000c4
:103f20000080fb0000804000800078001e009000b0
:103f3000010878000080fa00000006000600fa0080
:103f4000000f780011079800220798001e007800e3
:103f50004800de00804078001e0090000148780094
:103f60001e007800804078002e0090000148780004
:083f70000080fa0000000600c9
:020000040000fa
:103f7800d4100000180000008000000000100000ad
:103f8800d400000080000000ec10000002000000d7
:103f980080000000ee100000880000008200000091
:103fa8000100000000141100151114001114110073
:103fb800141114001104110000000000000000009a
:103fc80000000000000000000000000000000000e9
:103fd800000000000002080001013c00113d110032
:103fe8003c113c00113c11003c112c001100000058
:103ff80000000000000000000000000000000000b9
:10400800000000000000000000000200080202009a
:1040180064116500116411006411640011641100d9
:104028005411000000000000000000000000000023
:104038000000000000000000000000000000000078
:10404800ee101600113e11000000000000000000f4
:104058000000000000000000b6110000020000008f
:1040680080000000981100001a0000008200000083
:10407800686a6c00747a4c000000010000020000bd
:104088000400080000100000000020002b2d230071
:1040980030000000b811000002000000820000009b
:1040a80004000000b21100000400000080000000bd
:1040b800761100002200000082000000303132003a
:1040c800333435003637380039414200434445001f
:1040d8004600300031323300343536003738390085
:1040e800616263006465660000000000ba110000a8
:1040f800020000008200000001000000bc11000066
:0c41080002000000800000000000000029
:020000040000fa
:104114000000fa0040a7a900113a8000f08f2f0098
:10412400008060000080a000103a880042e7a900e7
:1041340042c7a9004207a80000000000113a80000d
:10414400000027008080600000002100808f500064
:10415400faff3a004fe7a8004f87a900713a8000a0
:10416400f00f2f0000806000703a88000080fa0091
:10417400000006000000fa0045e7a900213a80008b
:10418400f0ff280000806000203a8800213a800077
:10419400f08f2f0000806000203a8800213a8000d0
:1041a400f0f32f00008060000060a000203a880037
:1041b400213a800000fe2f0000806000203a880031
:1041c400313a800000e02f0080806000600220000f
:1041d40001007000303a88000080fa0000000600f8
:1041e4000000fa00002eef000e2eef00022eef006a
:1041f400102eef001e2eef00122eef000080fa00aa
:10420400000006000000fa00c028ef00c428ef00f8
:10421400c628ef00c1e8a9000080fa0000000600eb
:104224000200fa00004f78001e4078000004e0000d
:104234000700320011028000f0f12f0000806000be
:10424400100288004460a900c3e8a80005003700f4
:1042540011028000000e200001007000100288008e
:0c426400c3e8a9000080fa00000006007a
:020000040000fa
:10427000f03fb1000180b10006003500ee030900f7
:1042800000000000403fb1000180b100fbff3d0095
:104290001000b000203fb00002003500008009008f
:0842a000000000000000060010
:020000040000fa
:04afe000cfff00009f
:020000040000fa
:04afe400dfff00008b
:020000040000fa
:04afe8005fff000007
:020000040000fa
:04afec007fff0000e3
:020000040000fa
:04aff000f9ff000065
:020000040000fa
:04aff400ffff00005b
:00000001FF
