:020000040000fa
:080000000002040000000000f2
:020000040000fa
:0400080044030000ad
:020000040000fa
:04000c0044030000a9
:020000040000fa
:0400100044030000a5
:020000040000fa
:0400140044030000a1
:020000040000fa
:04001800440300009d
:020000040000fa
:04001c004403000099
:020000040000fa
:040020004403000095
:020000040000fa
:040024004403000091
:020000040000fa
:04002800440300008d
:020000040000fa
:04002c004403000089
:020000040000fa
:040030004403000085
:020000040000fa
:040034004403000081
:020000040000fa
:04003800440300007d
:020000040000fa
:04003c004403000079
:020000040000fa
:040040004403000075
:020000040000fa
:040044004403000071
:020000040000fa
:04004800440300006d
:020000040000fa
:04004c004403000069
:020000040000fa
:040050004403000065
:020000040000fa
:040054004403000061
:020000040000fa
:04005800440300005d
:020000040000fa
:04005c004403000059
:020000040000fa
:040060004403000055
:020000040000fa
:040064004403000051
:020000040000fa
:04006800120300007f
:020000040000fa
:04006c00fa02000094
:020000040000fa
:040070004403000045
:020000040000fa
:040074004403000041
:020000040000fa
:04007800440300003d
:020000040000fa
:04007c004403000039
:020000040000fa
:040080004403000035
:020000040000fa
:040084004403000031
:020000040000fa
:04008800440300002d
:020000040000fa
:04008c004403000029
:020000040000fa
:040090004403000025
:020000040000fa
:040094004403000021
:020000040000fa
:04009800440300001d
:020000040000fa
:04009c004403000019
:020000040000fa
:0400a0004403000015
:020000040000fa
:0400a4004403000011
:020000040000fa
:0400a800440300000d
:020000040000fa
:0400ac004403000009
:020000040000fa
:0400b0004403000005
:020000040000fa
:0400b4004403000001
:020000040000fa
:0400b80044030000fd
:020000040000fa
:0400bc0044030000f9
:020000040000fa
:0400c00044030000f5
:020000040000fa
:0400c40044030000f1
:020000040000fa
:0400c80044030000ed
:020000040000fa
:0400cc0044030000e9
:020000040000fa
:0400d00044030000e5
:020000040000fa
:0400d40044030000e1
:020000040000fa
:0400d80044030000dd
:020000040000fa
:0400dc0044030000d9
:020000040000fa
:0400e00044030000d5
:020000040000fa
:0400e40044030000d1
:020000040000fa
:0400e80044030000cd
:020000040000fa
:0400ec0044030000c9
:020000040000fa
:0400f00044030000c5
:020000040000fa
:0400f40044030000c1
:020000040000fa
:0400f80044030000bd
:020000040000fa
:0400fc0044030000b9
:020000040000fa
:0401000044030000b4
:020000040000fa
:0401040044030000b0
:020000040000fa
:0401080044030000ac
:020000040000fa
:04010c0044030000a8
:020000040000fa
:0401100044030000a4
:020000040000fa
:0401140044030000a0
:020000040000fa
:04011800440300009c
:020000040000fa
:04011c004403000098
:020000040000fa
:040120004403000094
:020000040000fa
:040124004403000090
:020000040000fa
:04012800440300008c
:020000040000fa
:04012c004403000088
:020000040000fa
:040130004403000084
:020000040000fa
:040134004403000080
:020000040000fa
:04013800440300007c
:020000040000fa
:04013c004403000078
:020000040000fa
:040140004403000074
:020000040000fa
:040144004403000070
:020000040000fa
:04014800440300006c
:020000040000fa
:04014c004403000068
:020000040000fa
:040150004403000064
:020000040000fa
:040154004403000060
:020000040000fa
:04015800440300005c
:020000040000fa
:04015c004403000058
:020000040000fa
:040160004403000054
:020000040000fa
:040164004403000050
:020000040000fa
:04016800440300004c
:020000040000fa
:04016c004403000048
:020000040000fa
:040170004403000044
:020000040000fa
:040174004403000040
:020000040000fa
:04017800440300003c
:020000040000fa
:04017c004403000038
:020000040000fa
:040180004403000034
:020000040000fa
:040184004403000030
:020000040000fa
:04018800440300002c
:020000040000fa
:04018c004403000028
:020000040000fa
:040190004403000024
:020000040000fa
:040194004403000020
:020000040000fa
:04019800440300001c
:020000040000fa
:04019c004403000018
:020000040000fa
:0401a0004403000014
:020000040000fa
:0401a4004403000010
:020000040000fa
:0401a800440300000c
:020000040000fa
:0401ac004403000008
:020000040000fa
:0401b0004403000004
:020000040000fa
:0401b4004403000000
:020000040000fa
:0401b80044030000fc
:020000040000fa
:0401bc0044030000f8
:020000040000fa
:0401c00044030000f4
:020000040000fa
:0401c40044030000f0
:020000040000fa
:0401c80044030000ec
:020000040000fa
:0401cc0044030000e8
:020000040000fa
:0401d00044030000e4
:020000040000fa
:0401d40044030000e0
:020000040000fa
:0401d80044030000dc
:020000040000fa
:0401dc0044030000d8
:020000040000fa
:0401e00044030000d4
:020000040000fa
:0401e40044030000d0
:020000040000fa
:0401e80044030000cc
:020000040000fa
:0401ec0044030000c8
:020000040000fa
:0401f00044030000c4
:020000040000fa
:0401f40044030000c0
:020000040000fa
:0401f80044030000bc
:020000040000fa
:0401fc0044030000b8
:020000040000fa
:0402000044030000b3
:020000040000fa
:0402040044030000af
:020000040000fa
:0402080044030000ab
:020000040000fa
:04020c0044030000a7
:020000040000fa
:0402100044030000a3
:020000040000fa
:04021400440300009f
:020000040000fa
:04021800440300009b
:020000040000fa
:04021c004403000097
:020000040000fa
:040220004403000093
:020000040000fa
:04022400440300008f
:020000040000fa
:04022800440300008b
:020000040000fa
:04022c004403000087
:020000040000fa
:040230004403000083
:020000040000fa
:04023400440300007f
:020000040000fa
:04023800440300007b
:020000040000fa
:04023c004403000077
:020000040000fa
:040240004403000073
:020000040000fa
:04024400440300006f
:020000040000fa
:04024800440300006b
:020000040000fa
:04024c004403000067
:020000040000fa
:040250004403000063
:020000040000fa
:04025400440300005f
:020000040000fa
:04025800440300005b
:020000040000fa
:04025c004403000057
:020000040000fa
:040260004403000053
:020000040000fa
:04026400440300004f
:020000040000fa
:04026800440300004b
:020000040000fa
:04026c004403000047
:020000040000fa
:040270004403000043
:020000040000fa
:04027400440300003f
:020000040000fa
:04027800440300003b
:020000040000fa
:04027c004403000037
:020000040000fa
:040280004403000033
:020000040000fa
:100400008f0121000eff28000e018800000000006f
:10041000000020000000e000020032000001200087
:100420002002880014000700990007000000e00087
:1004300003003a00c0a320000100200002003700a2
:100440000000200001002000810f70000100320038
:100450000f000700000020000000e0000200320052
:1004600000000200000000004a0a02000000000034
:100470000040da000000fe00200020000000e00044
:1004800002003200100020009001880000000600e9
:10049000a1028800800478000000eb001f003700f4
:1004a000e284440054a0b4009905ba00e2844400f8
:1004b00054a0b4009906ba00e284440054a0b400e9
:1004c0000006eb00476fde00fd07b200ae018800ba
:1004d000636ce10003003a000ad801000000eb0061
:1004e0000e003700606ce10008003a00004deb00a0
:1004f0000a05e800020039003420ec000af0a000f0
:100500008b05e900f9ff3e00040037006168e10057
:10051000010032000086eb000b00070019c7ba008b
:100520000e04e0001905ba0003003a000a00e000da
:10053000dbff3a0000000600fe07b200ae028800b2
:100540008a047800f5ff37000cd0a300e20f4d00bd
:100550001c00390089027800354dba000a05e80010
:10056000020039003420ec000af0a0008b05e900fd
:100570000f003200254dba000a05e80002003900dc
:100580003420ec000af0a0008b05e90008003200de
:100590000c00e0000600320015cdba000a05e800a4
:1005a000020039003420ec000af0a0008b05e900bd
:1005b0008984e80054a0b4000b00e000e2ff3a0098
:1005c000000006009902ba00055d78008b05e9007d
:1005d000f7ff3200c82ade00055d78008b05e900d0
:1005e000f3ff32000c00e000f1ff320019ddba0029
:1005f000eeff3700801f78000000fa0010408000f6
:10060000620060000000e0000300320010c0b30090
:1006100007f0b7000228a9000080fa004f00780018
:10062000004006003600f800809fbe00829fbe009a
:10063000849fbe00869fbe000000fa00104080002c
:10064000610060000000e0000800320010c0b3004c
:1006500006f0b7000208a9003600070000808000fd
:10066000e60f500001003a00320007000080fa0057
:100670004f03be004f02be004f01be004f00be0040
:100680003600f900004006000040da000000fe00dd
:040690000000050061
:020000040000fa
:100694000400fa00004f78001147980012079800f0
:1006a4001e80fb00c800dd001e4090000080fb009f
:1006b40000804000800078001e009000010878004f
:1006c4000080fa00000006000600fa00000f78001f
:1006d40011079800220798001e0078004800de00e9
:1006e400804078001e009000014878001e007800c9
:1006f400804078002e009000014878000080fa00c5
:10070400000006000200fa00000f7800401080008c
:100714001e00600000f0a7000000ea000000ea00ec
:100724004f00de00004078000080fa000000060060
:100734000000fa0000808000e40f50005d003200e9
:10074400e40f500005003e000000e0000a00320003
:10075400e30f500034003200f0003700e60f500081
:10076400ce003200e60f50008c003900ed0f50002f
:10077400b5003200e90037000470ef0040012100a9
:1007840011c0b3000148780080002000ddff07009d
:100794000004e0000c00320000022000d9ff070032
:1007a4000004a2000004e0000700320000108000f2
:1007b40080407800200121000148780030002000aa
:1007c400008088000500370040012100a1cfb3005c
:1007d400014878006000200000808800004020006c
:1007e400c8ff07000004e0000500320040012100ba
:1007f400d1cfb30001487800600020000080880059
:1008040000042000bfff07000004e000ba0032002b
:1008140040012100e1cfb3000148780060002000ce
:1008240000808800bd00370000022000b5ff0700eb
:100834000004e000070032000010800080407800cf
:100844003001210001487800400020000080880029
:10085400050037004001210091cfb3000148780022
:10086400600020000080880000402000a5ff0700f1
:100874000004e0000500320040012100d1cfb300a4
:1008840001487800600020000080880000042000f7
:100894009cff07000004e0009900320040012100a1
:1008a400e1cfb30001487800600020000080880098
:1008b4009a0037000002200092ff07000004a20003
:1008c4000004e0001700320000108000804078002f
:1008d400200121000148780071808000200121005e
:1008e4000100010050012100104078000080fb004d
:1008f40010108800000000001000200081ff070095
:100904000004a2000004e000fbff3a000782a800f4
:100914000970ef004001210021c0b30001487800b4
:100924000900370000108000804078005001210049
:100934000148780010c0b30009f0b700400121005d
:1009440031c0b300014878005000200000808800c6
:10095400004020006bff07000004e00005003200a7
:1009640040012100d1cfb30001487800600020008d
:10097400008088000004200062ff07000004e000fb
:100984006100320040012100e1cfb300014878004a
:1009940060002000008088006000370009d0bf009c
:1009a4000004a2000004e0000e00320060012100f7
:1009b400104078000080fb00101088000000000048
:1009c400100020004fff07000004a2000004e00014
:1009d400fbff3a000782a800d000200000808800b6
:1009e400060037000010800080407800600121007c
:1009f400014878006000200000808800004020004a
:100a040040ff07000004e00005003200400121001f
:100a1400d1cfb30001487800600020000080880036
:100a24000004200037ff07000004e0003800320013
:100a340040012100e1cfb3000148780060002000ac
:100a440000808800350037006000200000808800a6
:100a5400004020002bff07000004e00005003200e6
:100a640040012100d1cfb30001487800600020008c
:100a7400008088000004200022ff07000004e0003a
:100a84002500320040012100e1cfb3000148780085
:100a94006000200000808800200037000030ef0054
:100aa40010c0b30004f0b7002000200015ff0700b9
:100ab4000004e00004003a000004200011ff0700d5
:100ac4000004e0000500320000108000804078003f
:100ad400500121000148780008c2a90083808000e9
:100ae40090808000a1808000b2808000030001001b
:100af4000000000009003700000000000700370074
:100b0400000000000500370000000000030037006b
:100b14000000000001003700000000000080fa001f
:100b2400000006000000fa000040eb00340007005b
:100b34000230ef0010c0b30005f0b70010c0b300de
:100b440008f0b700170ea900172ea900110ea9006e
:100b5400112ea9000622ef000822ef00400b20000e
:100b6400201088000228a9004142800000072000cc
:100b740001007000404288002228a8000080fa008a
:100b8400000006000600fa00000f78001107980024
:100b9400220798000040eb0019000700170ea90077
:100ba400172ea900110ea800112ea8000622ef008e
:100bb4000822ef000c22ef009e00780051108800fc
:100bc4000030ef0010c0b30004f0b70010c0b30051
:100bd40008f0b7009e00900071808800ae0090007d
:100be400818088000208a900404280007000b300a0
:100bf400404288002208a8000080fa000000060095
:100c04000200fa00004f78001e4078000004e00063
:100c14000200320007e2a8000100370007e2a90041
:100c24000080fa00000006000000fa000622ef002f
:100c34000822ef000230ef0010c0b30005f0b70047
:100c440010c0b30008f0b7000030ef0010c0b300cc
:100c540004f0b70010c0b30008f0b7000a30ef008a
:100c64000c30ef002228a9000228a9002228a8009d
:100c74002208a9000208a9002208a80010c0b30095
:100c8400dfff07000080fa00000006000200fa00ff
:100c9400000f780005d0bf000004a2000004e000ab
:100ca400040032001e00780081cfb3002140980078
:100cb400e90037000570ef001e00780011c0b30092
:100cc40021409800e0003700108080008000eb0095
:100cd400d200200003002000820f5000838f5800b0
:100ce400ca003e00000601000d0037002600370050
:100cf400290037005f0037007d0037009b00370074
:100d0400ba003700c1003700c0003700bf00370009
:100d1400400037005e0037007c0037009a0037003f
:100d240008d0bf000004e000040032000870ef00a7
:100d34001000200010808800c300370080002000cd
:100d440070fe07000004a2000004e0000700320067
:100d5400000120006bfe07000004e00003003200e5
:100d64001000200010808800b70037001e007800b3
:100d740080c0eb002140980010c0b30005f0b7001c
:100d84000230ef00b00037000602a8002000200067
:100d940010808800ac00370007d0bf000004e000da
:100da4009e0032000770ef008000200055fe07000f
:100db4000004e000100032000001200051fe070092
:100dc4000004a2000004e0000b0032001e007800c2
:100dd400104078000080fb00000040008000780094
:100de400f00f20000080600010108800a000200098
:100df40010808800940037000642a800600020009c
:100e0400108088001e00780080c0eb00214098000c
:100e14008d00370007d0bf000004e00081003200dd
:100e24000770ef000000280036fe07000004a2004f
:100e34000004e000080032000008200031fe070032
:100e44000004a2000004e00003003200300020008f
:100e5400108088007c0037000642a8006000200053
:100e6400108088001e007800c1cfb3002140980094
:100e7400750037001e007800104090000080fb00d1
:100e840010108800b0002000108088006e00370029
:100e940007d0bf000004e000640032000770ef00d8
:100ea4000000280017fe07000004a2000004e00070
:100eb400080032000008200012fe07000004a2000f
:100ec4000004e0000300320040002000108088008d
:100ed4005d0037000642a8006000200010808800f2
:100ee4001e007800b1cfb3002140980056003700af
:100ef4001e007800304090000080fb001010880035
:100f0400c0002000108088004f00370007d0bf00c9
:100f14000004e000470032000770ef0000002800e2
:100f2400f8fd07000004a2000004e00008003200fd
:100f340000082000f3fd07000004a2000004e00004
:100f44000300320050002000108088003e0037006b
:100f54000642a80060002000108088001e0078006f
:100f6400b1cfb30021409800370037001e0078004d
:100f7400404090000080fb0010108800d00020004a
:100f8400108088003000370007d0bf000004e00064
:100f94002a0032000770ef0000002800d9fd070086
:100fa4000004a2000004e000090032000008200050
:100fb400d4fd07000004a2000004e0000400320095
:100fc4000642a80060002000108088001e00370040
:100fd4000642a80060002000108088001e007800ef
:100fe400b1cfb300214098001700370007d0bf00ed
:100ff4000004e000130032000770ef000230ef003d
:1010040010c0b30005f0b7000f0037000230ef0046
:1010140010c0b30005f0b7000b003700000000005b
:10102400090037000000000007003700000000003e
:101034000500370000000000030037000000000036
:10104400010037000000000005d0bf000004a2002a
:101054000004e0001cff3a000080fa0000000600d3
:101064000200fa00000f780005d0bf000004a200bf
:101074000004e000040032001e00780081cfb300b9
:1010840021409800f90037000570ef001e00780039
:1010940011c0b30021409800f00037001080800098
:1010a4008000eb00e200200003002000820f5000cb
:1010b400838f5800d2003e00000601000e00370066
:1010c400270037002a003700600037009a003700f5
:1010d400ae003700c20037008f0037007a003700b7
:1010e400c7003700410037005f0037009f0037001a
:1010f400b30037007800370008d0bf000004e000d8
:10110400040032000870ef001000200010808800f6
:10111400d2003700800020007afd07000004a200fe
:101124000004e000070032000001200075fd070004
:101134000004e0000300320010002000108088004a
:10114400c60037001e00780080c0eb0021409800e4
:1011540010c0b30005f0b7000230ef00bf00370045
:101164000602a8002000200010808800bb00370081
:1011740007d0bf000004e000a50032000770ef00b4
:10118400800020005ffd07000004e0001000320032
:10119400000120005bfd07000004a2000004e00041
:1011a4000b0032001e007800104078000080fb0025
:1011b4000000400080007800f00f200000806000f4
:1011c40010108800a000200010808800a3003700c1
:1011d4000642a80060002000108088001e007800ed
:1011e400c1cfb300214098009c00370007d0bf0056
:1011f4000004e000880032000770ef0000002800bf
:1012040040fd07000004a2000004e00008003200d2
:10121400000820003bfd07000004a2000004e000d9
:101224000300320030002000108088008b0037005b
:101234000642a80060002000108088001e0078008c
:10124400b1cfb30021409800840037001e0078001d
:10125400104090000080fb0010108800b0002000b7
:10126400108088007d00370007d0bf000004e00034
:101274006b0032000770ef000000280021fd07001a
:101284000004a2000004e00008003200000820006e
:101294001cfd07000004a2000004e000030032006b
:1012a40080002000108088006c0037000642a800ef
:1012b40060002000108088001e007800b1cfb300c9
:1012c40021409800650037000622a800e0002000b5
:1012d400108088006100370007d0bf000004e000e0
:1012e400510032000770ef001e00780010407800b3
:1012f4000080fb000000400080007800f00f200018
:10130400008060000000e8001010880070002000d9
:10131400108088005100370007d0bf000004e000af
:10132400430032000770ef000662a800400020006e
:10133400108088004900370007d0bf000004e00097
:101344003d0032000770ef000010800080407800fc
:101354001e0078003140980006a2a9000682a80069
:10136400c0002000108088003c00370007d0bf0078
:101374000004e000320032000770ef000662a800ab
:1013840050002000108088003400370007d0bf00d0
:101394000004e0002c0032000770ef000010800011
:1013a400804078001e0078004140980006a2a80002
:1013b4000682a800d0002000108088002700370093
:1013c40007d0bf000004e000210032000770ef00e6
:1013d4000642a80060002000108088001f0037002b
:1013e40007d0bf000004e0001b0032000770ef00cc
:1013f4000230ef0010c0b30005f0b700170037004b
:101404000230ef0010c0b30005f0b700130037003e
:101414000000000011003700000000000f0037003a
:10142400000000000d003700000000000b00370032
:10143400000000000900370000000000070037002a
:101444000000000005003700000000000300370022
:1014540000000000010037000000000005d0bf00bc
:101464000004a2000004e0000cff3a000080fa002f
:04147400000006006e
:020000040000fa
:1014780012100000060000008000000000100000ac
:0c148800120000008000000000000000c6
:020000040000fa
:0c1494000000fa00a3fd0700ffff370076
:00000001FF
