:04000000CCEF3FF012
:107F98000001E4EF3FF0000E056E000E046E0BD0FA
:107FA8000106D8A00206060E036E300EE82EFED794
:107FB800032EFCD700D001500210D8B41200F0D71D
:107FC800000E926E000E936E000E946EC180C182F8
:107FD800C184C18681B003D0066A062A01D0066A28
:107FE80081500618FE0B0618816E010E026EF40E03
:087FF800016ECFEC3FF0EED763
:020000040020DA
:08000000FFFFFFFFFFFFFFFF00
:020000040030CA
:0E000000040C1F1EFF8080FF0FC00FE00F409A
:00000001FF
